:020000040000FA
:100000000C9462000C948A000C948A000C948A0070
:100010000C948A000C948A000C948A000C948A0038
:100020000C948A000C948A000C948A000C948A0028
:100030000C948A000C948A000C948A000C948A0018
:100040000C94DF020C948A000C944F030C94290347
:100050000C948A000C948A000C948A000C948A00F8
:100060000C948A000C948A000000000024002700F1
:100070002A0000000000250028002B0000000000DE
:1000800023002600290004040404040404040202DA
:100090000202020203030303030301020408102007
:1000A0004080010204081020010204081020000012
:1000B0000008000201000003040700000000000027
:1000C0000000080611241FBECFEFD8E0DEBFCDBF71
:1000D00011E0A0E0B1E0EAE7FCE002C005900D927B
:1000E000A236B107D9F722E0A2E6B1E001C01D9225
:1000F000AD31B207E1F710E0C2E6D0E004C02197CD
:10010000FE010E943506C136D107C9F70E9481035E
:100110000C943B060C940000833081F028F481306D
:1001200099F08230A9F008958730A9F08830C9F09D
:100130008430B1F4809180008F7D03C08091800075
:100140008F7780938000089584B58F7784BD08955C
:1001500084B58F7DFBCF8091B0008F778093B00006
:1001600008958091B0008F7DF9CFCF93DF93282F32
:1001700030E0F901E255FF4F8491F901E656FF4F57
:10018000D491F901EA57FF4FC491CC23A1F081111A
:100190000E948C00EC2FF0E0EE0FFF1FE458FF4FA1
:1001A000A591B491EC91ED2381E090E009F480E019
:1001B000DF91CF91089580E090E0FACF1F93CF9325
:1001C000DF93282F30E0F901E255FF4F8491F901C8
:1001D000E656FF4FD491F901EA57FF4FC491CC2363
:1001E000A9F0162F81110E948C00EC2FF0E0EE0F89
:1001F000FF1FEE58FF4FA591B4918FB7F894EC9183
:10020000111108C0D095DE23DC938FBFDF91CF9111
:100210001F910895DE2BF8CFCF93DF9390E0FC0180
:10022000E656FF4F24918A579F4FFC018491882303
:10023000D1F090E0880F991FFC01E859FF4FA5917C
:10024000B491FC01EE58FF4FC591D491623071F426
:100250009FB7F8943C91822F809583238C93E881FB
:100260002E2B28839FBFDF91CF9108958FB7F894ED
:10027000EC912E2B2C938FBFF6CF3FB7F894809143
:100280007C0190917D01A0917E01B0917F0126B506
:10029000A89B05C02F3F19F00196A11DB11D3FBFBE
:1002A000BA2FA92F982F8827BC01CD01620F711D8D
:1002B000811D911D42E0660F771F881F991F4A9587
:1002C000D1F708958F929F92AF92BF92CF92DF9213
:1002D000EF92FF920E943D014B015C0182E3C82E28
:1002E000D12CE12CF12C0E943D01681979098A0971
:1002F0009B09683E734081059105A8F321E0C21A6D
:10030000D108E108F10888EE880E83E0981EA11C50
:10031000B11CC114D104E104F10429F7FF90EF905E
:10032000DF90CF90BF90AF909F908F900895AF9245
:10033000BF92CF92DF92EF92FF920F931F93CF93D2
:10034000DF936C017B018B01040F151FEB015E0134
:10035000AE18BF08C017D10759F06991D601ED91C9
:10036000FC910190F081E02DC6010995892B79F768
:10037000C501DF91CF911F910F91FF90EF90DF901A
:10038000CF90BF90AF900895FC01538D448D252FE1
:1003900030E0842F90E0821B930B541710F0CF961F
:1003A000089501970895FC01918D828D981761F051
:1003B000A28DAE0FBF2FB11D5D968C91928D9F5F68
:1003C0009F73928F90E008958FEF9FEF0895FC0147
:1003D000918D828D981731F0828DE80FF11D858DFA
:1003E00090E008958FEF9FEF0895FC01918D228D8D
:1003F000892F90E0805C9F4F821B91098F73992712
:10040000089580E891E00E94F50121E0892B09F42C
:1004100020E0822F089580E090E0892B29F00E944F
:10042000010281110C9400000895FC01A48DA80F15
:10043000B92FB11DA35ABF4F2C91848D90E0019626
:100440008F739927848FA689B7892C93A089B18946
:100450008C91837080648C93938D848D981306C0E7
:100460000288F389E02D80818F7D80830895EF924B
:10047000FF920F931F93CF93DF93EC0181E0888F5E
:100480009B8D8C8D98131AC0E889F989808185FF2E
:1004900015C09FB7F894EE89FF896083E889F989D0
:1004A00080818370806480839FBF81E090E0DF91D2
:1004B000CF911F910F91FF90EF900895F62E0B8D25
:1004C00010E00F5F1F4F0F731127E02E8C8D8E11E0
:1004D0000CC00FB607FCFACFE889F989808185FF47
:1004E000F5CFCE010E941502F1CFEB8DEC0FFD2F61
:1004F000F11DE35AFF4FF0829FB7F8940B8FEA8902
:10050000FB8980818062CFCFCF93DF93EC01888D10
:100510008823B9F0AA89BB89E889F9898C9185FD7E
:1005200003C0808186FD0DC00FB607FCF7CF8C910C
:1005300085FFF2CF808185FFEDCFCE010E941502AD
:10054000E9CFDF91CF910895FC0101900020E9F7F8
:100550003197AF01481B590BBC0180E891E00C9426
:100560009701EF92FF921F93CF93DF93C2E6D1E002
:1005700082E1E82E81E0F82E1992F70111917F01B6
:1005800061E0812F0E940C0160E0812F0E94DE005B
:10059000F1E0C836DF0781F71092760180E891E03C
:1005A0000E94F501892B29F080E891E00E94D30197
:1005B000F5CFDF91CF911F91FF90EF9008951F929B
:1005C0000F920FB60F9211242F933F938F939F9307
:1005D000AF93BF938091780190917901A0917A01B6
:1005E000B0917B013091770123E0230F2D3758F52F
:1005F0000196A11DB11D20937701809378019093FE
:100600007901A0937A01B0937B0180917C01909154
:100610007D01A0917E01B0917F010196A11DB11DC8
:1006200080937C0190937D01A0937E01B0937F0124
:10063000BF91AF919F918F913F912F910F900FBEDE
:100640000F901F90189526E8230F0296A11DB11D4B
:10065000D2CF1F920F920FB60F9211242F933F9378
:100660004F935F936F937F938F939F93AF93BF93BA
:10067000EF93FF9380E891E00E941502FF91EF91C4
:10068000BF91AF919F918F917F916F915F914F91AA
:100690003F912F910F900FBE0F901F9018951F92B2
:1006A0000F920FB60F9211242F938F939F93EF9376
:1006B000FF93E0919001F09191018081E09196018A
:1006C000F091970182FD1BC09081809199018F5F0D
:1006D0008F7320919A01821741F0E0919901F0E027
:1006E000E058FE4F958F80939901FF91EF919F9174
:1006F0008F912F910F900FBE0F901F9018958081B2
:10070000F4CFCF93DF93CDB7DEB72B970FB6F89426
:10071000DEBF0FBECDBF789484B5826084BD84B542
:10072000816084BD85B5826085BD85B5816085BDEC
:1007300080916E00816080936E00109281008091A4
:10074000810082608093810080918100816080932C
:100750008100809180008160809380008091B10051
:1007600084608093B1008091B00081608093B0007C
:1007700080917A00846080937A0080917A00826010
:1007800080937A0080917A00816080937A008091D2
:100790007A00806880937A001092C10002E111E033
:1007A00068E1C62E61E0D62EF801F1908F0161E07C
:1007B0008F2D0E940C0161E08F2D0E940C0160E0E2
:1007C0008F2D0E94DE00C016D10671F762E087E02F
:1007D0000E940C0161E08CE00E940C0160E08CE062
:1007E0000E94DE0087E00E94B50021E0892B09F419
:1007F00020E020936C0120936A011092680162E06E
:1008000088E00E940C0161E08DE00E940C0160E034
:100810008DE00E94DE0088E00E94B50021E0892B77
:1008200009F420E020936D0120936B01109269017F
:10083000E0919001F091910182E08083E0918C0140
:10084000F0918D011082E0918E01F0918F0180E195
:10085000808310929801E0919401F091950186E0D7
:100860008083E0919201F091930180818061808387
:10087000E0919201F0919301808188608083E09102
:100880009201F0919301808180688083E0919201D0
:10089000F091930180818F7D80830E94620188E1C5
:1008A00091E00E94A4028EE191E00E94A4026E01F8
:1008B0002BE0C20ED11C30E0A32E30E0B32E8824F2
:1008C000839441EA742E5FEA652E8091760181114E
:1008D00040C010E000E080E891E00E94F501892B23
:1008E000D1F380E891E00E94D301F801EF5DFE4F63
:1008F00090819813EECF0F5F1F4F0032110558F310
:1009000082E491E00E94A40280E891E00E948402C7
:100910000E946201809276010E943D016093720103
:100920007093730180937401909375012FB7F894BD
:100930008091780190917901A0917A01B0917B0129
:100940002FBF80936E0190936F01A0937001B093BD
:10095000710180E891E00E94F501892B09F180E89E
:1009600091E00E94D301F82E2FB7F89440917801BE
:100970005091790160917A0170917B012FBF409372
:100980006E0150936F016093700170937101F2E0FA
:100990008F1731F020E7222E8211B4C00E94B102DD
:1009A0002FB7F8948091780190917901A0917A0104
:1009B000B0917B012FBF40916E0150916F0160910A
:1009C000700170917101841B950BA60BB70B893BCD
:1009D0009B40A105B10508F00DC187E00E94B5005C
:1009E00011E0892B09F410E0612F8CE00E94DE00F9
:1009F00080916C01811759F010936C0110936A017A
:100A0000809168018F3F19F08F5F8093680188E0C3
:100A10000E94B50011E0892B09F410E0612F8DE0F0
:100A20000E94DE0080916D01811759F010936D01D5
:100A300010936B01809169018F3F19F08F5F809354
:100A400069010E943D010091720110917301209192
:100A50007401309175011B012C01201A310A420AE0
:100A6000530A92018101083813412105310508F428
:100A7000C3C060937201709373018093740190936B
:100A8000750179826A82E2E6F1E0DE0113968191D6
:100A90008D9381E0E836F807D1F790916A01917063
:100AA00080916801882329F0813019F0823009F0A3
:100AB00083E0880F892B89871092680190916B01E0
:100AC000917080916901882329F0813019F082307A
:100AD00009F083E0880F892B8A8710926901FE0153
:100AE000319690E080E0BF012191820F911DCE16DA
:100AF000DF06D1F78B874BE050E080E891E00E9461
:100B000097017AC0807F99278039910509F021CF1C
:100B100080E891E00E94F501892BD1F380E891E013
:100B20000E94D3018C018F2D8F70863008F038CF52
:100B300090E0FC01EE59FE4F00837801FF248E5EA9
:100B40009E4FFC01908061E0892D0E940C01E11410
:100B5000F10429F460E0892D0E94DE0021CFFFEF2F
:100B6000EF16F10411F461E0F6CFE92DF0E0E25563
:100B7000FF4FE491E33021F148F4E130B9F0E23085
:100B8000D1F020E8E216F10474F7E4CFE73011F178
:100B9000E83041F1E430A9F78091800080628093D1
:100BA0008000F0928B00E0928A00FACE84B58068D3
:100BB00084BD07BDF5CE84B5806284BD08BDF0CE8E
:100BC00080918000806880938000F0928900E0929C
:100BD0008800E6CE8091B00080688093B0000093DA
:100BE000B300DECE8091B00080628093B0000093AD
:100BF000B400D6CE0E94B102A114B10409F465CEAE
:100C00000E940102882309F460CE0E9400005DCE9C
:100C1000E0E8F1E01382128288EE93E0A0E0B0E019
:100C200084839583A683B78384E091E09183808356
:100C300085EC90E09587848784EC90E097878687A1
:100C400080EC90E0918B808B81EC90E0938B828B99
:100C500082EC90E0958B848B86EC90E0978B868B72
:100C6000118E128E138E148E0895EE0FFF1F0590B5
:100C7000F491E02D0994F894FFCF000000003702B2
:100C80009701C4018402F501D301E70103050609B8
:100C90000A0B5245414459000D0A00232323446F97
:100CA00020796F7520627974652C207768656E20D5
:100CB00049206B6E6F636B3F242424002323234A57
:100CC000757374206120626974206F666620746891
:0C0CD0006520626C6F636B2124242400FB
:107E0000112484B714BE81FFF0D085E080938100F7
:107E100082E08093C00088E18093C10086E0809377
:107E2000C20080E18093C4008EE0C9D0259A86E02C
:107E300020E33CEF91E0309385002093840096BBD3
:107E4000B09BFECF1D9AA8958150A9F7CC24DD24C4
:107E500088248394B5E0AB2EA1E19A2EF3E0BF2EE7
:107E6000A2D0813461F49FD0082FAFD0023811F036
:107E7000013811F484E001C083E08DD089C08234E0
:107E800011F484E103C0853419F485E0A6D080C0E4
:107E9000853579F488D0E82EFF2485D0082F10E0AE
:107EA000102F00270E291F29000F111F8ED06801E7
:107EB0006FC0863521F484E090D080E0DECF843638
:107EC00009F040C070D06FD0082F6DD080E0C81688
:107ED00080E7D80618F4F601B7BEE895C0E0D1E017
:107EE00062D089930C17E1F7F0E0CF16F0E7DF06D8
:107EF00018F0F601B7BEE89568D007B600FCFDCFD4
:107F0000A601A0E0B1E02C9130E011968C91119780
:107F100090E0982F8827822B932B1296FA010C0160
:107F200087BEE89511244E5F5F4FF1E0A038BF0790
:107F300051F7F601A7BEE89507B600FCFDCF97BE46
:107F4000E89526C08437B1F42ED02DD0F82E2BD052
:107F50003CD0F601EF2C8F010F5F1F4F84911BD097
:107F6000EA94F801C1F70894C11CD11CFA94CF0C13
:107F7000D11C0EC0853739F428D08EE10CD085E9AC
:107F80000AD08FE07ACF813511F488E018D01DD067
:107F900080E101D065CF982F8091C00085FFFCCF94
:107FA0009093C60008958091C00087FFFCCF809118
:107FB000C00084FD01C0A8958091C6000895E0E648
:107FC000F0E098E1908380830895EDDF803219F02E
:107FD00088E0F5DFFFCF84E1DECF1F93182FE3DFCA
:107FE0001150E9F7F2DF1F91089580E0E8DFEE27F6
:047FF000FF270994CA
:027FFE00040479
:00000001FF
